{
  "abi": [
    {
      "inputs": [
        {
          "internalType": "address",
          "name": "_admin",
          "type": "address"
        },
        {
          "internalType": "address",
          "name": "_implementation",
          "type": "address"
        }
      ],
      "stateMutability": "nonpayable",
      "type": "constructor"
    },
    {
      "anonymous": false,
      "inputs": [
        {
          "indexed": false,
          "internalType": "address",
          "name": "previousAdmin",
          "type": "address"
        },
        {
          "indexed": false,
          "internalType": "address",
          "name": "newAdmin",
          "type": "address"
        }
      ],
      "name": "AdminChanged",
      "type": "event"
    },
    {
      "anonymous": false,
      "inputs": [
        {
          "indexed": true,
          "internalType": "address",
          "name": "implementation",
          "type": "address"
        }
      ],
      "name": "Upgraded",
      "type": "event"
    },
    {
      "stateMutability": "payable",
      "type": "fallback"
    },
    {
      "inputs": [],
      "name": "admin",
      "outputs": [
        {
          "internalType": "address",
          "name": "",
          "type": "address"
        }
      ],
      "stateMutability": "view",
      "type": "function"
    },
    {
      "inputs": [],
      "name": "implementation",
      "outputs": [
        {
          "internalType": "address",
          "name": "res",
          "type": "address"
        }
      ],
      "stateMutability": "view",
      "type": "function"
    },
    {
      "inputs": [
        {
          "internalType": "address",
          "name": "_admin",
          "type": "address"
        }
      ],
      "name": "setAdmin",
      "outputs": [],
      "stateMutability": "nonpayable",
      "type": "function"
    },
    {
      "inputs": [
        {
          "internalType": "address",
          "name": "_implementation",
          "type": "address"
        }
      ],
      "name": "upgradeTo",
      "outputs": [],
      "stateMutability": "nonpayable",
      "type": "function"
    },
    {
      "inputs": [
        {
          "internalType": "address",
          "name": "_implementation",
          "type": "address"
        },
        {
          "internalType": "bytes",
          "name": "_data",
          "type": "bytes"
        }
      ],
      "name": "upgradeToAndCall",
      "outputs": [],
      "stateMutability": "payable",
      "type": "function"
    }
  ],
  "bytecode": {
    "object": "0x608060405234801561001057600080fd5b5060405161074f38038061074f83398101604081905261002f916101a6565b61003882610048565b610041816100de565b50506101d9565b600061005261016d565b90506001600160a01b03821661006757600080fd5b816001600160a01b0316816001600160a01b03160361008557600080fd5b60008051602061070f833981519152829055604080516001600160a01b038084168252841660208201527f7e644d79422f17c01e4894b5f4f588d331ebfa28653d42ae832dc59e38c9798f910160405180910390a15050565b6001600160a01b0381166100f157600080fd5b6001600160a01b03811661011160008051602061072f8339815191525490565b6001600160a01b03160361012457600080fd5b60008051602061072f8339815191528190556040516001600160a01b038216907fbc7cd75a20ee27fd9adebab32041f755214dbc6bffa90cc0225b39da2e5c2d3b90600090a250565b600061018560008051602061070f8339815191525490565b905090565b80516001600160a01b03811681146101a157600080fd5b919050565b600080604083850312156101b957600080fd5b6101c28361018a565b91506101d06020840161018a565b90509250929050565b610527806101e86000396000f3fe60806040526004361061004a5760003560e01c80633659cfe61461009d5780634f1ef286146100bd5780635c60da1b146100d0578063704b6c021461010a578063f851a4401461012a575b60006100626000805160206104d28339815191525490565b90506001600160a01b03811661007757600080fd5b3660008037600080366000845af43d6000803e808015610096573d6000f35b3d6000fd5b005b3480156100a957600080fd5b5061009b6100b83660046103fc565b61013f565b61009b6100cb36600461041e565b610178565b3480156100dc57600080fd5b506000805160206104d2833981519152545b6040516001600160a01b03909116815260200160405180910390f35b34801561011657600080fd5b5061009b6101253660046103fc565b610268565b34801561013657600080fd5b506100ee61029e565b6000805160206104b2833981519152546001600160a01b0316336001600160a01b03161461016c57600080fd5b610175816102bb565b50565b6000805160206104b2833981519152546001600160a01b0316336001600160a01b0316146101a557600080fd5b6101ae836102bb565b6000306001600160a01b03163484846040516101cb9291906104a1565b60006040518083038185875af1925050503d8060008114610208576040519150601f19603f3d011682016040523d82523d6000602084013e61020d565b606091505b50509050806102625760405162461bcd60e51b815260206004820181905260248201527f4549503139363750726f78793a207570646174652063616c6c206661696c6564604482015260640160405180910390fd5b50505050565b6000805160206104b2833981519152546001600160a01b0316336001600160a01b03161461029557600080fd5b6101758161034a565b60006102b66000805160206104b28339815191525490565b905090565b6001600160a01b0381166102ce57600080fd5b806001600160a01b03166102ee6000805160206104d28339815191525490565b6001600160a01b03160361030157600080fd5b6000805160206104d28339815191528190556040516001600160a01b038216907fbc7cd75a20ee27fd9adebab32041f755214dbc6bffa90cc0225b39da2e5c2d3b90600090a250565b600061035461029e565b90506001600160a01b03821661036957600080fd5b816001600160a01b0316816001600160a01b03160361038757600080fd5b6000805160206104b2833981519152829055604080516001600160a01b038084168252841660208201527f7e644d79422f17c01e4894b5f4f588d331ebfa28653d42ae832dc59e38c9798f910160405180910390a15050565b80356001600160a01b03811681146103f757600080fd5b919050565b60006020828403121561040e57600080fd5b610417826103e0565b9392505050565b60008060006040848603121561043357600080fd5b61043c846103e0565b9250602084013567ffffffffffffffff8082111561045957600080fd5b818601915086601f83011261046d57600080fd5b81358181111561047c57600080fd5b87602082850101111561048e57600080fd5b6020830194508093505050509250925092565b818382376000910190815291905056feb53127684a568b3173ae13b9f8a6016e243e63b6e8ee1178d6a717850b5d6103360894a13ba1a3210667c828492db98dca3e2076cc3735a920a3ca505d382bbca264697066735822122026d4d1f9e70d1c3214fd136c3bb0955ad5c94c60cf72c87ba721e267f2cc9cf564736f6c634300080f0033b53127684a568b3173ae13b9f8a6016e243e63b6e8ee1178d6a717850b5d6103360894a13ba1a3210667c828492db98dca3e2076cc3735a920a3ca505d382bbc",
    "linkReferences": {}
  },
  "methodIdentifiers": {
    "admin()": "f851a440",
    "implementation()": "5c60da1b",
    "setAdmin(address)": "704b6c02",
    "upgradeTo(address)": "3659cfe6",
    "upgradeToAndCall(address,bytes)": "4f1ef286"
  },
  "id": 19
}